:100000000C9476000C9491040C946A040C949E0059
:100010000C949E000C949E000C949E000C949E00E8
:100020000C949E000C949E000C949E000C94B804BA
:100030000C949E000C949E000C949E000C949E00C8
:100040000C9420040C9479050C94EE030C94C803D2
:100050000C949E000C949E000C949E000C949E00A8
:100060000C949E000C949E007F079D07C507BC075B
:10007000C507CA072B0844084F0873088A08B50843
:10008000B808BC08E008CD08D308D308D908D908B7
:1000900000000000240027002A00000000002500C6
:1000A00028002B00000000080002010000030407E4
:1000B0000000000000000000010204081020408041
:1000C00001020408102001020408102000000000B2
:1000D000230026002900040404040404040402028A
:1000E00002020202030303030303990511241FBE46
:1000F000CFEFD8E0DEBFCDBF11E0A0E0B1E0E2E499
:10010000F5E102C005900D92AC31B107D9F726E0B8
:10011000ACE1B1E001C01D92A932B207E1F710E0F5
:10012000C6E7D0E004C02197FE010E94940AC537BB
:10013000D107C9F70E9487060C949F0A0C9400000F
:10014000CF92DF92EF92FF920F931F93CF93DF93A3
:100150006C017A018B01C0E0D0E0CE15DF0589F09B
:10016000D8016D918D01D601ED91FC910190F08146
:10017000E02DC6010995892B11F47E0102C021965C
:10018000ECCFC701DF91CF911F910F91FF90EF90BE
:10019000DF90CF900895FC01918D828D981761F0CA
:1001A000828DDF01A80FB11D5D968C91928D9F5FAE
:1001B0009F73928F90E008958FEF9FEF0895FC0159
:1001C000918D828D981731F0828DE80FF11D858D0C
:1001D00090E008958FEF9FEF0895FC01918D228D9F
:1001E000892F90E0805C9F4F821B91098F73992724
:1001F000089581E595E00E94ED0021E0892B09F446
:1002000020E0822F0895FC01848DDF01A80FB11D2D
:10021000A35ABF4F2C91848D90E001968F7399273C
:10022000848FA689B7892C93A089B1898C91806429
:100230008C93938D848D981306C00288F389E02DEA
:1002400080818F7D80830895EF92FF920F931F939B
:10025000CF93DF93EC0181E0888F9B8D8C8D981379
:1002600005C0E889F989808185FD24C0F62E0B8DB3
:1002700010E00F5F1F4F0F731127E02E8C8DE812D7
:100280000CC00FB607FCFACFE889F989808185FF99
:10029000F5CFCE010E940301F1CF8B8DFE01E80F57
:1002A000F11DE35AFF4FF0820B8FEA89FB898081B1
:1002B000806207C0EE89FF896083E889F9898081BF
:1002C0008064808381E090E0DF91CF911F910F9156
:1002D000FF90EF900895CF93DF93EC01888D8823F2
:1002E000C9F0EA89FB89808185FD05C0A889B989A3
:1002F0008C9186FD0FC00FB607FCF5CF808185FF7E
:10030000F2CFA889B9898C9185FFEDCFCE010E94EB
:100310000301E7CFDF91CF91089580E090E0892B32
:1003200029F00E94F90081110C940000089590E0DA
:10033000FC01EC55FF4F3491FC01E854FF4F249130
:10034000FC01EA52FF4FE491EE2309F43BC0332352
:1003500039F1333091F038F43130A9F0323001F511
:1003600084B58F7D12C0373091F03830A1F0343031
:10037000B9F4809180008F7D03C0809180008F77D9
:10038000809380000DC084B58F7784BD09C08091B3
:10039000B0008F7703C08091B0008F7D8093B00054
:1003A000F0E0EE0FFF1FE656FF4FA591B4918FB717
:1003B000F894EC91611103C020952E2301C02E2BDF
:1003C0002C938FBF0895CF93DF9390E0FC01E85406
:1003D000FF4F2491FC01EA52FF4F8491882361F181
:1003E00090E0880F991FFC01E057FF4FC591D49111
:1003F000FC01E656FF4FA591B491611109C09FB76A
:10040000F8948881209582238883EC912E230BC059
:10041000623061F49FB7F8943881822F80958323EE
:100420008883EC912E2B2C939FBF06C08FB7F89436
:10043000E8812E2B28838FBFDF91CF9108951F93E2
:10044000CF93DF93182FEB0161E00E94E301209727
:1004500011F460E004C0CF3FD10539F461E0812F91
:10046000DF91CF911F910C949701E12FF0E0EC55B3
:10047000FF4FE491E330F9F048F4E130B9F0E230B5
:10048000A1F584B5806284BDC8BD34C0E730E9F011
:10049000E83019F1E43049F5809180008062809362
:1004A0008000D0938B00C0938A0024C084B58068FC
:1004B00084BDC7BD1FC0809180008068809380008C
:1004C000D0938900C093880015C08091B0008068E7
:1004D0008093B000C093B3000DC08091B0008062E3
:1004E0008093B000C093B40005C0C038D1050CF0B3
:1004F000B5CFAFCFDF91CF911F9108950895CF92DF
:10050000DF92EF92FF92CF93DF93EC01603282E0B3
:1005100078070CF03DC077FD06C0653B71052CF0F7
:1005200064EB70E002C060E070E0898128E830E0B0
:100530006901C81AD10887FDD394CC0CDD1CCC0C02
:10054000DD1C0D2C000CEE08FF088A8128E532E046
:10055000281B310987FD3395220F331F220F331FCC
:10056000C901330FAA0BBB0B9C01AD012C193D092E
:100570004E095F09DB010E944F0924EB30E040E0A7
:1005800050E00E942509C20ED31EE41EF51EB601DE
:1005900088818C3080F5998148E850E0491B5109E9
:1005A00097FD5395440F551F440F551F641775074A
:1005B00084F09A8128E532E0291B310997FD3395B3
:1005C000220F331F220F331FAB01261737070CF4FE
:1005D000A90142505109440F551F2FB7F89490E0DC
:1005E000FC01EE0FFF1F8E0F9F1FFC01EE50FA4F14
:1005F000528341832FBFDF91CF91FF90EF90DF9027
:10060000CF9008951F93CF93DF93EC01162F88812D
:100610008C3008F04EC061E0812F0E94E301888198
:10062000E82FF0E09F01220F331FE20FF31FEE507F
:10063000FA4F1F739081907C192B108319821A82B4
:100640006CE00E94880A9CE0899FB001112440E080
:1006500050E09A01260F371FF901EE0FFF1F2E0FF2
:100660003F1FF901EE50FA4F908196FD16C04F5F83
:100670005F4F4C30510569F781110FC01092800017
:1006800082E0809381001092850010928400B19ADC
:1006900080916F00826080936F00E881F0E0CF016D
:1006A000880F991FE80FF91FEE50FA4F8081806480
:1006B00080838881DF91CF911F910895682F809367
:1006C0002B0590932C0581E595E00E942401609113
:1006D0002C0581E595E00C94240190911C01E92FF3
:1006E000F0E0E35EFE4F80819F5F90931C010895D0
:1006F000DC01ED91FD918081ED91FD919081ED9175
:10070000FD916C9163708E2309F064609F2309F062
:100710006860E5E9F3E0E60FF11D659565956D9379
:100720006D917D918D919D91099423C01AC012C045
:1007300016C010C01EC009C014C013C006C019C026
:1007400009C00DC007C00DC014C062507040804089
:1007500090400BC0615070408040904006C06E5F7A
:1007600001C06F5F7F4F8F4F9F4F9E938E937E93FD
:100770006E9308958091F0059091F1050C947803A3
:100780008091EE059091EF050C9478030E949A0AEF
:100790001F920F920FB60F9211242F933F934F93F6
:1007A0005F936F937F938F939F93AF93BF93EF93D9
:1007B000FF9381E595E00E940301FF91EF91BF91C6
:1007C000AF919F918F917F916F915F914F913F91E9
:1007D0002F910F900FBE0F901F9018951F920F92A0
:1007E0000FB60F9211242F938F939F93EF93FF9344
:1007F000E0916105F09162058081E0916705F091DB
:10080000680582FD12C0908180916A058F5F8F73A9
:1008100020916B05821751F0E0916A05F0E0EF5AE4
:10082000FA4F958F80936A0501C08081FF91EF9107
:100830009F918F912F910F900FBE0F901F90189541
:100840001F920F920FB60F9211242F933F938F9305
:100850009F93AF93BF9380910C0590910D05A0914C
:100860000E05B0910F0530910B0523E0230F2D37B6
:1008700020F40196A11DB11D05C026E8230F0296A4
:10088000A11DB11D20930B0580930C0590930D05C0
:10089000A0930E05B0930F05809107059091080570
:1008A000A0910905B0910A050196A11DB11D809383
:1008B000070590930805A0930905B0930A05BF9119
:1008C000AF919F918F913F912F910F900FBE0F90FD
:1008D0001F9018951F920F920FB60F9211242F930D
:1008E0003F934F935F936F937F938F939F93AF93B8
:1008F000BF93EF93FF93E0910A01F0910B010995EB
:10090000FF91EF91BF91AF919F918F917F916F91E7
:100910005F914F913F912F910F900FBE0F901F90BD
:1009200018951F920F920FB60F9211242F933F9399
:100930004F935F936F937F938F939F93AF93BF93E7
:10094000EF93FF93E0910801F09109010995FF9160
:10095000EF91BF91AF919F918F917F916F915F9137
:100960004F913F912F910F900FBE0F901F901895B0
:100970001F920F920FB60F9211242F933F934F9314
:100980005F936F937F938F939F93AF93BF93EF93F7
:10099000FF938091060587FF05C010928500109295
:1009A00084001BC020910605022E000C330B8091A1
:1009B000160690E02817390784F480910605082E62
:1009C000000C990BFC01EE0FFF1F8E0F9F1FFC0107
:1009D000EE50FA4F808186FD15C0809106058F5F2D
:1009E0008093060520910605022E000C330B8091A2
:1009F000160690E028173907C4F4809106058C305C
:100A000064F113C080910605082E000C990BFC01BF
:100A1000EE0FFF1F8E0F9F1FFC01EE50FA4F8081DB
:100A200060E08F730E949701D8CF809184009091ED
:100A30008500049680349C4918F480E49CE905C044
:100A40008091840090918500049690938900809312
:100A500088008FEF809306053BC020918400309181
:100A6000850080910605082E000C990BFC01EE0F05
:100A7000FF1F8E0F9F1FFC01EE50FA4F8181928164
:100A8000820F931F909389008093880080910605C0
:100A9000082E000C990BFC01EE0FFF1F8E0F9F1FFD
:100AA000FC01EE50FA4F808186FF12C0809106054E
:100AB000082E000C990BFC01EE0FFF1F8E0F9F1FDD
:100AC000FC01EE50FA4F808161E08F730E94970124
:100AD000FF91EF91BF91AF919F918F917F916F9116
:100AE0005F914F913F912F910F900FBE0F901F90EC
:100AF00018951F920F920FB60F9211248F939F9308
:100B0000EF93FF93809105059EB5E82FF0E0E35E3B
:100B1000FE4F90838F5F8093050581E080935005A1
:100B2000FF91EF919F918F910F900FBE0F901F90AB
:100B30001895CF93DF93109254051092530588EEC9
:100B400093E0A0E0B0E08093550590935605A09304
:100B50005705B093580580E191E09093520580933A
:100B6000510585EC90E090935E0580935D0584ECE3
:100B700090E09093600580935F0580EC90E0909307
:100B800062058093610581EC90E090936405809309
:100B9000630582EC90E0909366058093650586EC92
:100BA00090E0909368058093670510926A05109213
:100BB0006B0510926C0510926D05809116068C30B5
:100BC000A0F491E0980F909316068093260690E08B
:100BD000FC01EE0FFF1F8E0F9F1FFC01EE50FA4F1E
:100BE00088EB9BE09283818303C08FEF809326067E
:100BF000809116068C30A0F491E0980F9093160621
:100C00008093230690E0FC01EE0FFF1F8E0F9F1FC5
:100C1000FC01EE50FA4F88EB9BE09283818303C086
:100C20008FEF8093230662E083E00E94E30162E09D
:100C300082E00E94E301E9EDF0E0E491F0E0EE0FE4
:100C4000FF1FE453FF4FA591B491B0931806A093F2
:100C50001706EBEBF0E0849180931B06E8EDF0E0E3
:100C6000E491F0E0EE0FFF1FE453FF4FC591D491E4
:100C7000D0931A06C0931906EAEBF0E0E491E093F2
:100C80001C0610921E0610921F061092200610924B
:100C90002106EBE3FFE13197F1F7EC91E82381E0E6
:100CA00009F480E0288190911C06922309F082606B
:100CB00027E136E080931D063093F1052093F0057F
:100CC0008AEB93E090930B0180930A018091690075
:100CD000837F846080936900E99A81E08093220693
:100CE0003093EF052093EE0580EC93E0909309019B
:100CF00080930801809169008C7F816080936900F6
:100D0000E89A82E080932206DF91CF91089578944B
:100D100084B5826084BD84B5816084BD85B5826000
:100D200085BD85B5816085BD80916E0081608093B1
:100D30006E0010928100809181008260809381001A
:100D4000809181008160809381008091800081602A
:100D5000809380008091B10084608093B100809185
:100D6000B00081608093B00080917A0084608093AD
:100D70007A0080917A00826080937A0080917A0074
:100D8000816080937A0080917A00806880937A00F5
:100D90001092C10061E080E00E94E30161E081E126
:100DA0000E94E30161E080E10E94E30160E081E1F3
:100DB0000E94970161E080E00E94970161E080E17C
:100DC0000E94970161E088E00E94E30161E087E012
:100DD0000E94E30161E089E00E94E30161E088E0B4
:100DE0000E94970161E087E00E94970161E089E03D
:100DF0000E94970161E085E00E94E30161E086E0E6
:100E00000E94E30160E085E00E94970160E086E0D7
:100E10000E94970160E08FE00E94E30161E082E1BF
:100E20000E94E30161E083E10E94E30162E170E07E
:100E300086E296E00E94020363E170E083E296E0BE
:100E40000E94020360E083E00E94E30160E082E030
:100E50000E94E3018CB580648CBD8CB580688CBD2C
:100E60002AE0F22E80915005882309F4ABC10E943C
:100E70006D03D82F80934F0561E081E10E949701B7
:100E800060E080E00E94970161E080E10E949701AC
:100E9000CD2FC695C695C695C0934E058D2F8770EC
:100EA00080934D050E946D0380934C059AE0899FC5
:100EB000D00D11249EE2C92E95E0D92E082F10E006
:100EC000C6018E5295408017910754F40E946D031D
:100ED000F60181936F016F2D0E94880AD90FF0CF20
:100EE0000E946D038D136CC18C2F90E084319105AD
:100EF00008F066C1FC01EC5CFF4F0C94940AC091B1
:100F00002E05C0932D0581E090912F05911101C010
:100F100080E080930701D0E060E0882331F085E035
:100F20000E949701BE0186E005C086E00E949701FD
:100F3000BE0185E00E941F0243C180912F05909160
:100F40002E0590932B0580932C0560912B057091B5
:100F50002C0580E090E00E94FA0920E030E04AE7AA
:100F600054E40E9488096093030170930401809304
:100F700005019093060124C181E090912E05911105
:100F800001C080E080932A051BC180E090E00E94B0
:100F90005E0316C1809131059091300520912F0597
:100FA00030912E0530932605209327059093280530
:100FB000809329058091260590912705A091280509
:100FC000B09129058093220590932305A0932405D1
:100FD000B093250580913505909134052091330516
:100FE00030913205309326052093270590932805EC
:100FF000809329058091260590912705A0912805C9
:10100000B091290580931E0590931F05A09320059C
:10101000B0932105809139059091380520913705CD
:1010200030913605309326052093270590932805A7
:10103000809329058091260590912705A091280588
:10104000B091290580931A0590931B05A0931C0568
:10105000B0931D05B5C081E090913005911101C09C
:1010600080E08093070180912F0590912E05909349
:101070002B0580932C0580912B0590912C05909346
:101080001905809318059CC0F89410921E061092C2
:101090001F061092200610922106789491C080912C
:1010A000140590911505092E000CAA0BBB0B682F97
:1010B0008093100590931105A0931205B09313052A
:1010C00081E595E00E9424016091110581E595E09C
:1010D0000E9424016091120581E595E00E9424019F
:1010E000609113055BC010922A0581E090912F0555
:1010F000911101C080E08093070180912E058093BB
:101100002D05809133059091320520913105309164
:10111000300522C081E080932A059091300591111D
:1011200001C080E08093070180912F0590912E05EA
:1011300090932B0580932C0580912B0590912C0585
:10114000909319058093180580913405909133058B
:1011500020913205309131053093260520932705E3
:1011600090932805809329052BC01092020128C076
:1011700081E08093020124C080912F0590912E057B
:1011800090932B0580932C0580912B0590912C0535
:10119000909301018093000113C060E081E595E028
:1011A0000E9424010DC060912E0570E086E296E059
:1011B00005C060912E0570E083E296E00E947F02F8
:1011C0001092500580912D0581110AC061E088E0E0
:1011D0000E94970161E087E00E94970160E013C0E0
:1011E00080910701811106C060E088E00E949701AC
:1011F00061E005C061E088E00E94970160E087E05F
:101200000E94970161E089E00E9497018091220687
:10121000823030F4F89487E196E00E94780301C0B0
:10122000F89480911E0690911F06A0912006B0911F
:10123000210678948093140590931505A0931605C4
:10124000B09317050E948D010DCE052E97FB1EF45D
:1012500000940E943C0957FD07D00E94570907FCE3
:1012600003D04EF40C943C0950954095309521954F
:101270003F4F4F4F5F4F08959095809570956195C2
:101280007F4F8F4F9F4F08950E947909A59F900D22
:10129000B49F900DA49F800D911D11240895B7FF58
:1012A0000C9444090E944409821B930B0895A1E207
:1012B0001A2EAA1BBB1BFD010DC0AA1FBB1FEE1FD0
:1012C000FF1FA217B307E407F50720F0A21BB30B1B
:1012D000E40BF50B661F771F881F991F1A9469F797
:1012E00060957095809590959B01AC01BD01CF01F3
:1012F0000895A29FB001B39FC001A39F700D811DEF
:101300001124911DB29F700D811D1124911D08950E
:101310000E949C090C944E0A0E94470A58F00E94B1
:10132000400A40F029F45F3F29F00C94370A51112C
:101330000C94820A0C943D0A0E945F0A68F3992378
:10134000B1F3552391F3951B550BBB27AA276217C1
:101350007307840738F09F5F5F4F220F331F441FCE
:10136000AA1FA9F335D00E2E3AF0E0E832D0915002
:101370005040E695001CCAF72BD0FE2F29D0660FEF
:10138000771F881FBB1F261737074807AB07B0E832
:1013900009F0BB0B802DBF01FF2793585F4F3AF038
:1013A0009E3F510578F00C94370A0C94820A5F3FF7
:1013B000E4F3983ED4F3869577956795B795F795BE
:1013C0009F5FC9F7880F911D9695879597F90895A6
:1013D000E1E0660F771F881FBB1F62177307840742
:1013E000BA0720F0621B730B840BBA0BEE1F88F751
:1013F000E0950895E89409C097FB3EF49095809598
:10140000709561957F4F8F4F9F4F9923A9F0F92FCA
:1014100096E9BB279395F695879577956795B79548
:10142000F111F8CFFAF4BB0F11F460FF1BC06F5F2E
:101430007F4F8F4F9F4F16C0882311F096E911C040
:10144000772321F09EE8872F762F05C0662371F061
:1014500096E8862F70E060E02AF09A95660F771F75
:10146000881FDAF7880F9695879597F9089597F969
:101470009F6780E870E060E008959FEF80EC08953A
:1014800000240A9416161706180609060895002463
:101490000A9412161306140605060895092E0394DD
:1014A000000C11F4882352F0BB0F40F4BF2B11F451
:1014B00060FF04C06F5F7F4F8F4F9F4F089557FDB0
:1014C0009058440F551F59F05F3F71F04795880FB2
:1014D00097FB991F61F09F3F79F087950895121649
:1014E00013061406551FF2CF4695F1DF08C01616F5
:1014F00017061806991FF1CF8695710561050894A6
:101500000895E894BB2766277727CB0197F90895BC
:10151000991B79E004C0991F961708F0961B881F45
:101520007A95C9F780950895EE0FFF1F0590F49105
:10153000E02D099481E090E0F8940C949F0AF894CF
:02154000FFCFDB
:101542006400010000C842017E027E020000000029
:0C1552002401A000ED00CB00DF006B01C5
:00000001FF
